:100000000C9434000C943E000C943E000C943E0082
:100010000C943E000C943E000C943E000C943E0068
:100020000C943E000C943E000C943E000C943E0058
:100030000C943E000C943E000C943E000C943E0048
:100040000C943E000C943E000C943E000C943E0038
:100050000C943E000C943E000C943E000C943E0028
:100060000C943E000C943E0011241FBECFEFD8E04C
:10007000DEBFCDBF0E94B1000C94B6000C9400000E
:100080008AB188668AB90895E9EBF0E080818083BF
:1000900081E08093B800ECEBF0E0808184608083A5
:1000A00008958091BC00846A8093BC008091BC005C
:1000B00087FFFCCF0895ECEBF0E0808184698083BA
:1000C00008958093BB0084E88093BC008091BC00BD
:1000D00087FFFCCF089520E4829FC001112484682B
:1000E0008093BC008091BC0087FFFCCF8091BB0057
:1000F00008958091B900887F08950F931F93CF933F
:10010000DF931F92CDB7DEB7062F142F89830E948D
:1001100051009091B900987F8981983011F081E069
:100120001AC00E9461009091B900987F9831B9F788
:10013000802F0E9461009091B900987F983279F7E2
:10014000812F0E9461008091B900887F883239F741
:100150000E945B0080E00F90DF91CF911F910F9183
:1001600008950E9440000E944400FFCFF894FFCF02
:00000001FF
