:100000000C9434000C943E000C943E000C943E0082
:100010000C943E000C943E000C943E000C943E0068
:100020000C943E000C943E000C943E000C943E0058
:100030000C943E000C943E000C943E000C943E0048
:100040000C943E000C943E000C943E000C943E0038
:100050000C943E000C943E000C943E000C943E0028
:100060000C943E000C943E0011241FBECFEFD8E04C
:10007000DEBFCDBF0E94A8000C94D2000C940000FB
:100080008091BC00846A8093BC008091BC0087FF93
:10009000FCCF0895ECEBF0E08081846980830895C3
:1000A0008093BB0084E88093BC008091BC0087FFF4
:1000B000FCCF089520E4829FC001112484688093BE
:1000C000BC008091BC0087FFFCCF8091BB000895ED
:1000D0008091B900887F08958AB188668AB90895A9
:1000E000E9EBF0E08081808381E08093B800ECEB65
:1000F000F0E080818460808308951F93CF93DF9325
:10010000182FD62FC42F0E9440000E94680088300C
:10011000C9F4812F0E9450000E946800883191F438
:100120008D2F0E9450000E946800883259F48C2F55
:100130000E9450000E946800883221F40E944A0008
:1001400080E001C081E0DF91CF911F910895089573
:100150000E946C000E947000C0E0D0E0CF3FD1054B
:1001600009F06CF44C2F6C2F8C2F0E947D0087E8D7
:1001700093E10197F1F700C000002196EFCF00E076
:1001800011E04C2F6C2F8C2F0E947D0087E893E1AB
:100190000197F1F700C00000015011090115110588
:0801A00081F7DACFF894FFCFDC
:00000001FF
